:0400000007EF00F016
:0A0008005E820BED08F0DCEF0BF058
:10100000003738392F3435362A3132332D23303DED
:051010002B2569000022
:101016000600F2A811EF08F013EF08F01CEF08F035
:10102600F2A218EF08F01AEF08F01CEF08F041ECF6
:101036000CF0F0A621EF08F023EF08F02CEF08F0F3
:10104600F0A028EF08F02AEF08F02CEF08F03FECAC
:101056000CF0F0A831EF08F033EF08F03CEF08F0A1
:10106600F0A238EF08F03AEF08F03CEF08F03DEC5C
:101076000CF0F2A641EF08F043EF08F05EEF08F03F
:10108600F2A048EF08F04AEF08F05EEF08F081A8FA
:101096004FEF08F051EF08F05EEF08F04704D8A4D0
:1010A60057EF08F059EF08F05EEF08F0000E476EB4
:1010B600000E30EC0CF0F2A663EF08F065EF08F0D6
:1010C60080EF08F0F2A06AEF08F06CEF08F080EF0E
:1010D60008F081B871EF08F073EF08F080EF08F0C0
:1010E6004750D8A479EF08F07BEF08F080EF08F0BE
:1010F600010E476E010E30EC0CF0F2A685EF08F0FB
:1011060087EF08F0A2EF08F0F2A08CEF08F08EEF60
:1011160008F0A2EF08F081AA93EF08F095EF08F027
:10112600A2EF08F04604D8A49BEF08F09DEF08F064
:10113600A2EF08F0000E466E000E23EC0CF0F2A6AD
:10114600A7EF08F0A9EF08F0C4EF08F0F2A0AEEFA1
:1011560008F0B0EF08F0C4EF08F081BAB5EF08F078
:10116600B7EF08F0C4EF08F04650D8A4BDEF08F07A
:10117600BFEF08F0C4EF08F0010E466E010E23EC37
:101186000CF0F2A6C9EF08F0CBEF08F0E6EF08F096
:10119600F2A0D0EF08F0D2EF08F0E6EF08F081AC4D
:1011A600D7EF08F0D9EF08F0E6EF08F04504D8A429
:1011B600DFEF08F0E1EF08F0E6EF08F0000E456E0D
:1011C600000E16EC0CF0F2A6EBEF08F0EDEF08F0CF
:1011D60008EF09F0F2A0F2EF08F0F4EF08F008EFDC
:1011E60009F081BCF9EF08F0FBEF08F008EF09F011
:1011F6004550D8A401EF09F003EF09F008EF09F014
:10120600010E456E010E16EC0CF0F2A60DEF09F07C
:101216000FEF09F02AEF09F0F2A014EF09F016EF2C
:1012260009F02AEF09F081AE1BEF09F01DEF09F076
:101236002AEF09F04404D8A423EF09F025EF09F0BA
:101246002AEF09F0000E446E000E09EC0CF0F2A62F
:101256002FEF09F031EF09F04CEF09F0F2A036EF6D
:1012660009F038EF09F04CEF09F081BE3DEF09F0C7
:101276003FEF09F04CEF09F04450D8A445EF09F0D0
:1012860047EF09F04CEF09F0010E446E010E09EC30
:101296000CF05E921100010E526E4A504B10D8B4FB
:1012A60057EF09F059EF09F06AEF09F04AC0D9FF84
:1012B6004BC0DAFFDF30E832E832070B4C6E070E20
:1012C6004C6468EF09F06AEF09F0CDEF09F0000E03
:1012D600526EEEEF09F04AC0D9FF4BC0DAFFDF309D
:1012E600E832E832070B4C6E010E4D6E4C2A7EEF4B
:1012F60009F0D8904D364C2E7CEF09F04D50FF0A80
:101306004E6E4AC0D9FF4BC0DAFFDF50070B4F6E57
:101316004F50020D3A0EF324D96E000EF420DA6E09
:10132600DECF50F0DDCF51F050C0D9FF51C0DAFF0B
:101336004E50DF16EEEF09F04AC0D9FF4BC0DAFF78
:10134600DF30E832E832070B4C6E010E4D6E4C2A48
:10135600AFEF09F0D8904D364C2EADEF09F04AC0EC
:10136600D9FF4BC0DAFFDF50070B4E6E4E50020D11
:101376003A0EF324D96E000EF420DA6EDECF4FF06B
:10138600DDCF50F04FC0D9FF50C0DAFF4D50DF120D
:10139600EEEF09F04AC0D9FF4BC0DAFFDFBCD6EF4B
:1013A60009F0D9EF09F0010EDAEF09F0000E4C6EE4
:1013B6004D6A4D50000AD8B4E3EF09F06AEF09F020
:1013C6004C50000AD8B46EEF09F0010AD8B49FEF6A
:1013D60009F06AEF09F052501200010E536E4A509E
:1013E6004B10D8B4F9EF09F0FBEF09F00CEF0AF057
:1013F6004AC0D9FF4BC0DAFFDF30E832E832070BCC
:101406004D6E070E4D640AEF0AF00CEF0AF06FEF0F
:101416000AF0000E536E84EF0AF04AC0D9FF4BC0A3
:10142600DAFFDF30E832E832070B4D6E010E4E6E02
:101436004D2A20EF0AF0D8904E364D2E1EEF0AF0B8
:101446004E50FF0A4F6E4AC0D9FF4BC0DAFFDF503D
:10145600070B506E5050020D260EF324D96E000E67
:10146600F420DA6EDECF51F0DDCF52F051C0D9FF55
:1014760052C0DAFF4F50DF1684EF0AF04AC0D9FF98
:101486004BC0DAFFDF30E832E832070B4D6E010E53
:101496004E6E4D2A51EF0AF0D8904E364D2E4FEF34
:1014A6000AF04AC0D9FF4BC0DAFFDF50070B4F6E78
:1014B6004F50020D260EF324D96E000EF420DA6E7C
:1014C600DECF50F0DDCF51F050C0D9FF51C0DAFF6A
:1014D6004E50DF1284EF0AF04C504D6E4E6A4E505D
:1014E600000AD8B479EF0AF00CEF0AF04D50000A62
:1014F600D8B410EF0AF0010AD8B441EF0AF00CEFA5
:101506000AF053501200480E576E000E586ECAEC81
:101516000AF0030E4B6E4A68000E4C6E98EC0BF008
:10152600030E4B6E4A681DC04CF098EC0BF01D2A5A
:10153600060E5D6E130E5C6EAE0EE82EFED75C2EAA
:10154600FCD75D2EFAD7030E4B6E4A68250E4C6EFD
:10155600000E4D6EBBEC0BF0050E2518D8A4B6EFA9
:101566000AF0B8EF0AF0C0EF0AF0480E546E000E0B
:10157600556E09EC0BF093EF0AF0480E546E000E10
:10158600556E3EEC0BF093EF0AF007EF00F024C027
:101596005BF057C0D9FF58C0DAFFDF50070B596E12
:1015A6005B505918F80B59185B6E57C0D9FF58C0D5
:1015B600DAFFDF30E832E832070B596E59465946F2
:1015C60059465B505918C70B59185B6E5B9C57C040
:1015D600D9FF58C0DAFFDFAC02D05B8E01D05B9E2C
:1015E60057505810D8A4FAEF0AF0FCEF0AF000EFB3
:1015F6000BF0000E5A6E07EF0BF05B0E546E000EEA
:10160600556E73EC0BF05A6E5A50120023C057F009
:1016160054C0D9FF55C0DAFFDF50070B566E57503E
:101626005618F80B5618576E54C0D9FF55C0DAFF36
:10163600DF30E832E832070B566E564656465646B7
:1016460057505618C70B5618576E579C578E5450FE
:101656005510D8A431EF0BF033EF0BF035EF0BF04C
:101666003DEF0BF0570E4A6E000E4B6E010E4C6EA0
:10167600F0EC09F0120022C057F054C0D9FF55C053
:10168600DAFFDF50070B566E57505618F80B5618F0
:10169600576E54C0D9FF55C0DAFFDF30E832E83262
:1016A600070B566E56465646564657505618C70BA3
:1016B6005618576E579C579E54505510D8A466EF2F
:1016C6000BF068EF0BF06AEF0BF072EF0BF0570EB2
:1016D6004A6E000E4B6E000E4C6EF0EC09F01200D6
:1016E60054505510D8A47AEF0BF07CEF0BF080EF36
:1016F6000BF0000E566E96EF0BF054C04AF055C034
:101706004BF04EEC09F0566E54C04AF055C04BF003
:1017160054C0D9FF55C0DAFF000EDFBE010E4C6E75
:10172600F0EC09F0566E56501200000EF2BE010E95
:101736004D6E4B50030BAA6E4AC0A9FF4CC0A8FFC2
:10174600A69EA69CA684F29E550EA76EAA0EA76E0E
:10175600A682A6B2B1EF0BF0B3EF0BF0ACEF0BF035
:10176600A6944DB002D0F29E01D0F28E010E120068
:101776004C504D10D8A4C2EF0BF0C4EF0BF0C8EFDD
:101786000BF0000E4E6EDAEF0BF04B50030BAA6E09
:101796004AC0A9FFA69EA69CA68000F000F04CC0F9
:1017A600D9FF4DC0DAFFA8CFDFFF010E4E6E4E50B7
:1017B6001200EE0EF66E170EF76E000EF86E00EEC5
:1017C60026F010EE23F00900F5CFEEFFE550E150CC
:1017D600FAE100EE01F0250EEE6AE806FDE15E9004
:1017E6005E92000186EF0AF0890F8A0F8B0F8C0F2D
:1017F6008D0F800F810F820F830F840F920F930F2F
:0B180600940F950F960F0101010103E4
:10181200496EF2904950D8A411EF0CF013EF0CF07E
:1018220015EF0CF015EF0CF01200496EF2904950D2
:10183200D8A41EEF0CF020EF0CF022EF0CF022EFF8
:101842000CF01200496EF2904950D8A42BEF0CF024
:101852002DEF0CF02FEF0CF02FEF0CF01200496E71
:10186200F2904950D8A438EF0CF03AEF0CF03CEF6C
:101872000CF03CEF0CF01200F0921200F09012000B
:04188200F2921200CC
:020000040020DA
:08000000FFFFFFFFFFFFFFFF00
:020000040030CA
:0E000000FF071F1FFF8385FF0FC00FE00F409B
:00000001FF
