:04000000B7EF7DF0E9
:10FB4600890F8A0F8B0F8C0F8D0F800F810F820FFD
:10FB5600830F840F920F930F940F950F960FC90181
:10FB660001410100131B030B460EF66EFB0EF76EEA
:10FB7600000EF86E00EE01F010EE28F00900F5CF49
:10FB8600EEFFE550E150FAE100EE3BF0070EEE6ABB
:10FB9600E806FDE1000EF86E000173EF7EF03650C8
:10FBA6003710D8A4D9EF7DF0DBEF7DF0DDEF7DF0E7
:10FBB600EDEF7DF036C033F037C034F04EEC7EF01A
:10FBC600386E010E3624336E000E3720346E4EEC3E
:10FBD6007EF0386E120033503410D8A4F5EF7DF065
:10FBE600F7EF7DF0F9EF7DF00DEF7EF033C029F0F1
:10FBF60034C02AF0000E2B6EC8EC7EF0356E010E76
:10FC06003324296E000E34202A6E010E2B6EC8ECAA
:10FC16007EF0356E120033503410D8A415EF7EF006
:10FC260017EF7EF019EF7EF02DEF7EF033C029F04E
:10FC360034C02AF0010E2B6EC8EC7EF0356E010E34
:10FC46003324296E000E34202A6E000E2B6EC8EC6B
:10FC56007EF0356E120033503410D8A435EF7EF0A6
:10FC660037EF7EF039EF7EF04DEF7EF033C029F0AE
:10FC760034C02AF0000E2B6EC8EC7EF0356E010EF5
:10FC86003324296E000E34202A6E000E2B6EC8EC2B
:10FC96007EF0356E120033503410D8A455EF7EF046
:10FCA60057EF7EF05BEF7EF0000E356E71EF7EF063
:10FCB60033C029F034C02AF05EEC7FF0356E33C0D5
:10FCC60029F034C02AF033C0D9FF34C0DAFF000E61
:10FCD600DFBE010E2B6EC8EC7EF0356E355012007D
:10FCE600270E366E000E376ED2EC7DF0250E366E80
:10FCF600000E376ED2EC7DF0270E336E000E346E9A
:10FD0600EEEC7DF0250E336E000E346EEEEC7DF0DB
:10FD16000B0E3A6E260E396E5E0EE82EFED7392E83
:10FD2600FCD73A2EFAD7270E336E000E346E0EEC41
:10FD36007EF0250E336E000E346E2EEC7EF00B0E2A
:10FD46003A6E260E396E5E0EE82EFED7392EFCD799
:10FD56003A2EFAD7250E336E000E346E0EEC7EF078
:10FD6600270E336E000E346E2EEC7EF00B0E3A6EBE
:10FD7600260E396E5E0EE82EFED7392EFCD73A2EA9
:10FD8600FAD77FEF7EF000EF00F0010E326E2950B9
:10FD96002A10D8B4D1EF7EF0D3EF7EF0E4EF7EF0F8
:10FDA60029C0D9FF2AC0DAFFDF30E832E832070B74
:10FDB6002C6E070E2C64E2EF7EF0E4EF7EF047EF48
:10FDC6007FF0000E326E5CEF7FF029C0D9FF2AC0AB
:10FDD600DAFFDF30E832E832070B2C6E010E2D6EAB
:10FDE6002C2AF8EF7EF0D8902D362C2EF6EF7EF0EA
:10FDF6002D50FF0A2E6E29C0D9FF2AC0DAFFDF5028
:10FE0600070B2F6E2F50020D010EF324D96E000E34
:10FE1600F420DA6EDECF30F0DDCF31F030C0D9FF1E
:10FE260031C0DAFF2E50DF165CEF7FF029C0D9FF14
:10FE36002AC0DAFFDF30E832E832070B2C6E010EFB
:10FE46002D6E2C2A29EF7FF0D8902D362C2E27EFF9
:10FE56007FF029C0D9FF2AC0DAFFDF50070B2E6ECC
:10FE66002E50020D010EF324D96E000EF420DA6E28
:10FE7600DECF2FF0DDCF30F02FC0D9FF30C0DAFF54
:10FE86002D50DF125CEF7FF02B502C6E2D6A2D501B
:10FE9600000AD8B451EF7FF0E4EF7EF02C50000A50
:10FEA600D8B4E8EF7EF0010AD8B419EF7FF0E4EF9A
:10FEB6007EF032501200010E316E29502A10D8B44D
:10FEC60067EF7FF069EF7FF07AEF7FF029C0D9FF07
:10FED6002AC0DAFFDF30E832E832070B2B6E070E56
:10FEE6002B6478EF7FF07AEF7FF0DDEF7FF0000E86
:10FEF600316EFEEF7FF029C0D9FF2AC0DAFFDF306E
:10FF0600E832E832070B2B6E010E2C6E2B2A8EEF91
:10FF16007FF0D8902C362B2E8CEF7FF02C50FF0ADA
:10FF26002D6E29C0D9FF2AC0DAFFDF50070B2E6ECF
:10FF36002E50020D150EF324D96E000EF420DA6E43
:10FF4600DECF2FF0DDCF30F02FC0D9FF30C0DAFF83
:10FF56002D50DF16FEEF7FF029C0D9FF2AC0DAFF49
:10FF6600DF30E832E832070B2B6E010E2C6E2B2A9F
:10FF7600BFEF7FF0D8902C362B2EBDEF7FF029C037
:10FF8600D9FF2AC0DAFFDF50070B2D6E2D50020D68
:10FF9600150EF324D96E000EF420DA6EDECF2EF0A5
:10FFA600DDCF2FF02EC0D9FF2FC0DAFF2C50DF1285
:10FFB600FEEF7FF029C0D9FF2AC0DAFFDFBCE6EFEB
:10FFC6007FF0E9EF7FF0010EEAEF7FF0000E2B6E77
:10FFD6002C6A2C50000AD8B4F3EF7FF07AEF7FF04A
:10FFE6002B50000AD8B47EEF7FF0010AD8B4AFEFE9
:0AFFF6007FF07AEF7FF03150120027
:020000040020DA
:08000000FFFFFFFFFFFFFFFF00
:020000040030CA
:0E000000FF071F1FFF8385FF0FC00FE00F409B
:00000001FF
