:0400000007EF00F016
:0A0008006D820BED08F00FEF0DF014
:10100000003738392F3435362A3132332D23303DED
:051010002B2569000022
:101016000600FACF67F0FBCF68F0D9CF69F0DACFD8
:101026006AF0F3CF6BF0F4CF6CF0F2A81DEF08F086
:101036001FEF08F028EF08F0F2A224EF08F026EFE1
:1010460008F028EF08F0BEEC0DF0F0A62DEF08F042
:101056002FEF08F038EF08F0F0A034EF08F036EF85
:1010660008F038EF08F0BCEC0DF0F0A83DEF08F002
:101076003FEF08F048EF08F0F0A244EF08F046EF23
:1010860008F048EF08F0BAEC0DF0F2A64DEF08F0C4
:101096004FEF08F06AEF08F0F2A054EF08F056EFB1
:1010A60008F06AEF08F081A85BEF08F05DEF08F042
:1010B6006AEF08F05004D8A463EF08F065EF08F073
:1010C6006AEF08F0000E506E000EADEC0DF0F2A6C1
:1010D6006FEF08F071EF08F08CEF08F0F2A076EFF2
:1010E60008F078EF08F08CEF08F081B87DEF08F093
:1010F6007FEF08F08CEF08F05050D8A485EF08F089
:1011060087EF08F08CEF08F0010E506E010EADEC83
:101116000DF0F2A691EF08F093EF08F0AEEF08F0AD
:10112600F2A098EF08F09AEF08F0AEEF08F081AA67
:101136009FEF08F0A1EF08F0AEEF08F04F04D8A437
:10114600A7EF08F0A9EF08F0AEEF08F0000E4F6E1B
:10115600000EA0EC0DF0F2A6B3EF08F0B5EF08F024
:10116600D0EF08F0F2A0BAEF08F0BCEF08F0D0EF2D
:1011760008F081BAC1EF08F0C3EF08F0D0EF08F02D
:101186004F50D8A4C9EF08F0CBEF08F0D0EF08F025
:10119600010E4F6E010EA0EC0DF0F2A6D5EF08F091
:1011A600D7EF08F0F2EF08F0F2A0DCEF08F0DEEF80
:1011B60008F0F2EF08F081ACE3EF08F0E5EF08F095
:1011C600F2EF08F04E04D8A4EBEF08F0EDEF08F0CC
:1011D600F2EF08F0000E4E6E000E93EC0DF0F2A644
:1011E600F7EF08F0F9EF08F014EF09F0F2A0FEEFC0
:1011F60008F000EF09F014EF09F081BC05EF09F0E3
:1012060007EF09F014EF09F04E50D8A40DEF09F0DE
:101216000FEF09F014EF09F0010E4E6E010E93EC7C
:101226000DF0F2A619EF09F01BEF09F036EF09F001
:10123600F2A020EF09F022EF09F036EF09F081AEB7
:1012460027EF09F029EF09F036EF09F04D04D8A48D
:101256002FEF09F031EF09F036EF09F0000E4D6E71
:10126600000E86EC0DF0F2A63BEF09F03DEF09F01B
:1012760058EF09F0F2A042EF09F044EF09F058EFF9
:1012860009F081BE49EF09F04BEF09F058EF09F07C
:101296004D50D8A451EF09F053EF09F058EF09F07B
:1012A600010E4D6E010E86EC0DF09DAC5DEF09F062
:1012B6005FEF09F068EF09F09EAC64EF09F066EFA6
:1012C60009F068EF09F0C0EC0DF0F2AA6DEF09F035
:1012D6006FEF09F078EF09F0F2A474EF09F076EFFA
:1012E60009F078EF09F02AEC0DF06CC0F4FF6BC042
:1012F600F3FF6AC0DAFF69C0D9FF68C0FBFF67C0A9
:10130600FAFF6D921100010E0001886F8051811164
:10131600D8B490EF09F092EF09F0A3EF09F080C07E
:10132600D9FF81C0DAFFDF30E832E832070B826F7F
:10133600070E8265A1EF09F0A3EF09F008EF0AF0A6
:10134600000E886F29EF0AF080C0D9FF81C0DAFF4E
:10135600DF30E832E832070B826F010E836F822B93
:10136600B7EF09F0D8908337822FB5EF09F0000167
:101376008351FF0A846F80C0D9FF81C0DAFFDF5036
:10138600070B856F8551020D430EF324D96E000EAF
:10139600F420DA6EDECF86F0DDCF87F086C0D9FF87
:1013A60087C0DAFF8451DF1629EF0AF080C0D9FF23
:1013B60081C0DAFFDF30E832E832070B826F010EB8
:1013C600836F822BE9EF09F0D8908337822FE7EFFE
:1013D60009F080C0D9FF81C0DAFFDF50070B00019A
:1013E600846F8451020D430EF324D96E000EF4204F
:1013F600DA6EDECF85F0DDCF86F085C0D9FF86C0F8
:10140600DAFF8351DF1229EF0AF080C0D9FF81C0CD
:10141600DAFFDFBC11EF0AF014EF0AF0010E15EF48
:101426000AF0000E826F836B8351000AD8B41EEF58
:101436000AF0A3EF09F08251000AD8B4A7EF09F029
:10144600010AD8B4D9EF09F0A3EF09F088511200C8
:10145600010E0001896F80518111D8B435EF0AF071
:1014660037EF0AF048EF0AF080C0D9FF81C0DAFFF3
:10147600DF30E832E832070B836F070E836546EFED
:101486000AF048EF0AF0ADEF0AF0000E896FC2EFDE
:101496000AF080C0D9FF81C0DAFFDF30E832E832D7
:1014A600070B836F010E846F832B5CEF0AF0D890D5
:1014B6008437832F5AEF0AF000018451FF0A856FA3
:1014C60080C0D9FF81C0DAFFDF50070B866F8651D7
:1014D600020D2F0EF324D96E000EF420DA6EDECF45
:1014E60087F0DDCF88F087C0D9FF88C0DAFF855145
:1014F600DF16C2EF0AF080C0D9FF81C0DAFFDF3005
:10150600E832E832070B836F010E846F832B8EEF70
:101516000AF0D8908437832F8CEF0AF080C0D9FF69
:1015260081C0DAFFDF50070B0001856F8551020D80
:101536002F0EF324D96E000EF420DA6EDECF86F07D
:10154600DDCF87F086C0D9FF87C0DAFF8451DF126E
:10155600C2EF0AF08251836F846B8451000AD8B4BB
:10156600B7EF0AF048EF0AF08351000AD8B44CEFFF
:101576000AF0010AD8B47EEF0AF048EF0AF0895162
:101586001200010E626E59505A10D8B4CDEF0AF00F
:10159600CFEF0AF0E0EF0AF059C0D9FF5AC0DAFFE0
:1015A600DF30E832E832070B5C6E070E5C64DEEF74
:1015B6000AF0E0EF0AF043EF0BF0000E626E58EF10
:1015C6000BF059C0D9FF5AC0DAFFDF30E832E832F3
:1015D600070B5C6E010E5D6E5C2AF4EF0AF0D89084
:1015E6005D365C2EF2EF0AF05D50FF0A5E6E59C062
:1015F600D9FF5AC0DAFFDF50070B5F6E5F50020D4E
:101606002F0EF324D96E000EF420DA6EDECF60F0D2
:10161600DDCF61F060C0D9FF61C0DAFF5E50DF1632
:1016260058EF0BF059C0D9FF5AC0DAFFDF30E83265
:10163600E832070B5C6E010E5D6E5C2A25EF0BF03F
:10164600D8905D365C2E23EF0BF059C0D9FF5AC0F7
:10165600DAFFDF50070B5E6E5E50020D2F0EF3248D
:10166600D96E000EF420DA6EDECF5FF0DDCF60F0CB
:101676005FC0D9FF60C0DAFF5D50DF1258EF0BF094
:101686005B505C6E5D6A5D50000AD8B44DEF0BF09E
:10169600E0EF0AF05C50000AD8B4E4EF0AF0010A61
:1016A600D8B415EF0BF0E0EF0AF06250120000011B
:1016B60083518411D8A462EF0BF064EF0BF068EF4E
:1016C6000BF0000E876FACEF0BF0D59E83C080F059
:1016D60084C081F09AEC0CF083C080F084C081F065
:1016E600F0EC0BF083C080F084C081F0EFEC0CF0DE
:1016F600000120EE04F08351D9268451DA22DECF90
:1017060085F0DDCF86F086C085F0866B8551D76E75
:1017160020EE04F08351D9268451DA22DF50D66EAA
:1017260020EE04F08351D9268451DA22DECF09F067
:10173600DDCF0AF0F28AF29483C0D9FF84C0DAFFC3
:10174600DECF07F0DDCF08F0F28EF28CD58E010EDB
:10175600876F875112002EC091F08DC0D9FF8EC0C1
:10176600DAFFDF50070B00018F6F91518F19F80BCD
:101776008F19916F8DC0D9FF8EC0DAFFDF30E83246
:10178600E832070B8F6F8F478F478F4791518F191D
:10179600C70B8F19916F919D8DC0D9FF8EC0DAFF4F
:1017A600DFAC02D0918F02D00001919F8D518E1136
:1017B600D8A4E0EF0BF0E2EF0BF0E6EF0BF0000E33
:1017C600906FEEEF0BF0910E8A6F000E8B6FC7ECE9
:1017D6000CF00001906F90511200000120EE06F00F
:1017E6008051D9268151DA22DFA4FCEF0BF0FEEFFF
:1017F6000BF001EF0CF0D59A2FEF0CF020EE06F06F
:101806008051D9268151DA22DFB40CEF0CF00EEFAD
:101816000CF02FEF0CF0D58A20EE06F08051D92679
:101826008151DA22DFA21AEF0CF01CEF0CF01FEF49
:101836000CF0D5982FEF0CF020EE06F08051D9264B
:101846008151DA22DFB22AEF0CF02CEF0CF02FEFE9
:101856000CF0D5882FEF0CF012002DC066F063C097
:10186600D9FF64C0DAFFDF50070B656E6650651856
:10187600F80B6518666E63C0D9FF64C0DAFFDF3007
:10188600E832E832070B656E654665466546665082
:101896006518C70B6518666E669C668E6350641085
:1018A600D8A458EF0CF05AEF0CF05CEF0CF064EF94
:1018B6000CF0660E596E000E5A6E010E5B6EC4EC8D
:1018C6000AF012002CC066F063C0D9FF64C0DAFFCC
:1018D600DF50070B656E66506518F80B6518666E67
:1018E60063C0D9FF64C0DAFFDF30E832E832070BA5
:1018F600656E65466546654666506518C70B65188C
:10190600666E669C669E63506410D8A48DEF0CF0DC
:101916008FEF0CF091EF0CF099EF0CF0660E596E0C
:10192600000E5A6E000E5B6EC4EC0AF01200000147
:1019360020EE06F08051D9268151DA22DFA0A6EFEB
:101946000CF0A8EF0CF0B8EF0CF0D59620EE03F0F3
:101956008051D9268151DA22DF50826FD550821903
:10196600F80B8219D56EC6EF0CF020EE06F080510A
:10197600D9268151DA22DFB0C3EF0CF0C5EF0CF0A7
:10198600C6EF0CF0D586120000018A518B11D8A43F
:10199600CFEF0CF0D1EF0CF0D5EF0CF0000E8C6F02
:1019A600EDEF0CF08AC080F08BC081F086EC09F078
:1019B60000018C6F8AC080F08BC081F08AC0D9FF8D
:1019C6008BC0DAFF000EDFBE010E826F2BEC0AF031
:1019D60000018C6F8C511200000120EE06F0805140
:1019E600D9268151DA22DFA6FBEF0CF0FDEF0CF0D1
:1019F60000EF0DF0D58C0EEF0DF020EE06F08051C5
:101A0600D9268151DA22DFB60BEF0DF00DEF0DF07E
:101A16000EEF0DF0D59C1200BE0EF66E1A0EF76E86
:101A2600000EF86E00EE2FF010EE2AF00900F5CF4A
:101A3600EEFFE550E150FAE100EE01F02E0EEE6AFF
:101A4600E806FDE16D906D92000174EF0DF0F294E1
:101A56000A50D76E09C0D6FF07500810D8B436EF23
:101A66000DF038EF0DF044EF0DF002D844EF0DF015
:101A76000500FA6E0750FD6E0850FE6EFF6AFA50BA
:101A860012001200030E27604BEF0DF04DEF0DF024
:101A960056EF0DF0580E636E000E646E65EC0CF09A
:101AA600272A5EEF0DF0580E636E000E646E30EC62
:101AB6000CF0000E276E1200890F8A0F8B0F8C0F09
:101AC6008D0F800F810F820F830F840F920F930F5C
:101AD600940F950F960F010101018A1A000178EC07
:101AE6000503510E0001836F000E846F5AEC0BF054
:101AF600580E00018D6F000E8E6FAEEC0BF082EF6C
:101B06000DF007EF00F0596EF2905950D8A48EEF01
:101B16000DF090EF0DF092EF0DF092EF0DF0120038
:101B2600596EF2905950D8A49BEF0DF09DEF0DF031
:101B36009FEF0DF09FEF0DF01200596EF290595085
:101B4600D8A4A8EF0DF0AAEF0DF0ACEF0DF0ACEFB6
:101B56000DF01200596EF2905950D8A4B5EF0DF061
:101B6600B7EF0DF0B9EF0DF0B9EF0DF01200F092EE
:0E1B76001200F0901200F29212009E9C1200DB
:020000040020DA
:08000000FFFFFFFFFFFFFFFF00
:020000040030CA
:0E000000FF071F1FFF8385FF0FC00FE00F409B
:00000001FF
