:0400000007EF00F016
:0A0008006D820BED08F0BDEF0DF066
:10100000003738392F3435362A3132332D23303DED
:051010002B2569000022
:101016000600FACF67F0FBCF68F0D9CF69F0DACFD8
:101026006AF0F3CF6BF0F4CF6CF0F2A81DEF08F086
:101036001FEF08F028EF08F0F2A224EF08F026EFE1
:1010460008F028EF08F020EC0EF0F0A62DEF08F0DF
:101056002FEF08F038EF08F0F0A034EF08F036EF85
:1010660008F038EF08F009EC0EF0F0A83DEF08F0B4
:101076003FEF08F048EF08F0F0A244EF08F046EF23
:1010860008F048EF08F0F2EC0DF0F2A64DEF08F08C
:101096004FEF08F06AEF08F0F2A054EF08F056EFB1
:1010A60008F06AEF08F081A85BEF08F05DEF08F042
:1010B6006AEF08F02204D8A463EF08F065EF08F0A1
:1010C6006AEF08F0000E226E000EA0EC0EF0F2A6FB
:1010D6006FEF08F071EF08F08CEF08F0F2A076EFF2
:1010E60008F078EF08F08CEF08F081B87DEF08F093
:1010F6007FEF08F08CEF08F02250D8A485EF08F0B7
:1011060087EF08F08CEF08F0010E226E010EA0ECBE
:101116000EF0F2A691EF08F093EF08F0AEEF08F0AC
:10112600F2A098EF08F09AEF08F0AEEF08F081AA67
:101136009FEF08F0A1EF08F0AEEF08F02104D8A465
:10114600A7EF08F0A9EF08F0AEEF08F0000E216E49
:10115600000E93EC0EF0F2A6B3EF08F0B5EF08F030
:10116600D0EF08F0F2A0BAEF08F0BCEF08F0D0EF2D
:1011760008F081BAC1EF08F0C3EF08F0D0EF08F02D
:101186002150D8A4C9EF08F0CBEF08F0D0EF08F053
:10119600010E216E010E93EC0EF0F2A6D5EF08F0CB
:1011A600D7EF08F0F2EF08F0F2A0DCEF08F0DEEF80
:1011B60008F0F2EF08F081ACE3EF08F0E5EF08F095
:1011C600F2EF08F02004D8A4EBEF08F0EDEF08F0FA
:1011D600F2EF08F0000E206E000E86EC0EF0F2A67E
:1011E600F7EF08F0F9EF08F014EF09F0F2A0FEEFC0
:1011F60008F000EF09F014EF09F081BC05EF09F0E3
:1012060007EF09F014EF09F02050D8A40DEF09F00C
:101216000FEF09F014EF09F0010E206E010E86ECB7
:101226000EF0F2A619EF09F01BEF09F036EF09F000
:10123600F2A020EF09F022EF09F036EF09F081AEB7
:1012460027EF09F029EF09F036EF09F01F04D8A4BB
:101256002FEF09F031EF09F036EF09F0000E1F6E9F
:10126600000E79EC0EF0F2A63BEF09F03DEF09F027
:1012760058EF09F0F2A042EF09F044EF09F058EFF9
:1012860009F081BE49EF09F04BEF09F058EF09F07C
:101296001F50D8A451EF09F053EF09F058EF09F0A9
:1012A600010E1F6E010E79EC0EF06CC0F4FF6BC0E0
:1012B600F3FF6AC0DAFF69C0D9FF68C0FBFF67C0E9
:1012C600FAFF6D921100010E0001886F80518111A5
:1012D600D8B470EF09F072EF09F083EF09F080C01F
:1012E600D9FF81C0DAFFDF30E832E832070B826FC0
:1012F600070E826581EF09F083EF09F0E8EF09F048
:10130600000E886F09EF0AF080C0D9FF81C0DAFFAE
:10131600DF30E832E832070B826F010E836F822BD3
:1013260097EF09F0D8908337822F95EF09F00001E7
:101336008351FF0A846F80C0D9FF81C0DAFFDF5076
:10134600070B856F8551020D150EF324D96E000E1D
:10135600F420DA6EDECF86F0DDCF87F086C0D9FFC7
:1013660087C0DAFF8451DF1609EF0AF080C0D9FF83
:1013760081C0DAFFDF30E832E832070B826F010EF8
:10138600836F822BC9EF09F0D8908337822FC7EF7E
:1013960009F080C0D9FF81C0DAFFDF50070B0001DA
:1013A600846F8451020D150EF324D96E000EF420BD
:1013B600DA6EDECF85F0DDCF86F085C0D9FF86C038
:1013C600DAFF8351DF1209EF0AF080C0D9FF81C02E
:1013D600DAFFDFBCF1EF09F0F4EF09F0010EF5EFEB
:1013E60009F0000E826F836B8351000AD8B4FEEFBA
:1013F60009F083EF09F08251000AD8B487EF09F0AB
:10140600010AD8B4B9EF09F083EF09F08851120048
:10141600010E0001896F80518111D8B415EF0AF0D1
:1014260017EF0AF028EF0AF080C0D9FF81C0DAFF73
:10143600DF30E832E832070B836F070E836526EF4D
:101446000AF028EF0AF08DEF0AF0000E896FA2EF7E
:101456000AF080C0D9FF81C0DAFFDF30E832E83217
:10146600070B836F010E846F832B3CEF0AF0D89035
:101476008437832F3AEF0AF000018451FF0A856F03
:1014860080C0D9FF81C0DAFFDF50070B866F865117
:10149600020D010EF324D96E000EF420DA6EDECFB3
:1014A60087F0DDCF88F087C0D9FF88C0DAFF855185
:1014B600DF16A2EF0AF080C0D9FF81C0DAFFDF3065
:1014C600E832E832070B836F010E846F832B6EEFD1
:1014D6000AF0D8908437832F6CEF0AF080C0D9FFCA
:1014E60081C0DAFFDF50070B0001856F8551020DC1
:1014F600010EF324D96E000EF420DA6EDECF86F0EC
:10150600DDCF87F086C0D9FF87C0DAFF8451DF12AE
:10151600A2EF0AF08251836F846B8451000AD8B41B
:1015260097EF0AF028EF0AF08351000AD8B42CEF9F
:101536000AF0010AD8B45EEF0AF028EF0AF08951E2
:101546001200010E0001846F80518111D8A4AEEF04
:101556000AF0B0EF0AF01AEF0BF0000E846F39EFC5
:101566000BF020EE03F08051D9268151DA22DF50AC
:10157600D8A4C0EF0AF0C2EF0AF0C5EF0AF0F19C5A
:1015860039EF0BF020EE03F08051D9268151DA2293
:10159600DE04D8A4D1EF0AF0D3EF0AF039EF0BF04E
:1015A600F18C39EF0BF020EE03F08051D9268151F2
:1015B600DA22DF50D8A4E2EF0AF0E4EF0AF0E7EF10
:1015C6000AF0F19A39EF0BF020EE03F08051D9269C
:1015D6008151DA22DE04D8A4F3EF0AF0F5EF0AF01F
:1015E60039EF0BF0F18A39EF0BF020EE03F0805162
:1015F600D9268151DA22DF50D8A404EF0BF006EF8A
:101606000BF009EF0BF0F19839EF0BF020EE03F039
:101616008051D9268151DA22DE04D8A415EF0BF0C9
:1016260017EF0BF039EF0BF0F18839EF0BF020EEE6
:1016360004F08051D9268151DA22DF50826F836B04
:101646008351000AD8B42AEF0BF0B0EF0AF08251AA
:10165600000AD8B4B4EF0AF0010AD8B4D6EF0AF0FB
:10166600030AD8B4F8EF0AF0B0EF0AF0845112007A
:10167600000183518411D8A443EF0BF045EF0BF022
:1016860073EF0BF0000E876F92EF0BF083C0D9FF5C
:1016960084C0DAFFDECF80F0DDCF81F063EC0EF0A0
:1016A6000001876F92EF0BF083C0D9FF84C0DAFF89
:1016B600DECF80F0DDCF81F04DEC0EF00001876FBC
:1016C60092EF0BF083C0D9FF84C0DAFFDECF80F043
:1016D600DDCF81F037EC0EF00001876F92EF0BF053
:1016E60020EE04F08351D9268451DA22DF50856F2B
:1016F600866B8651000AD8B483EF0BF045EF0BF0EA
:101706008551000AD8B449EF0BF0010AD8B457EF57
:101716000BF0030AD8B465EF0BF045EF0BF08751D9
:101726001200010E626E5B505C10D8B49DEF0BF098
:101736009FEF0BF0B0EF0BF05BC0D9FF5CC0DAFF98
:10174600DF30E832E832070B5D6E070E5D64AEEF00
:101756000BF0B0EF0BF0B4EF0BF0000E626EE0EFA3
:101766000BF05BC0D9FF5CC0DAFFDF30E832E8324D
:10177600070B5D6E010E5E6E5D2AC4EF0BF0D8900E
:101786005E365D2EC2EF0BF05BC0D9FF5CC0DAFFA0
:10179600DF50070B5F6E5F50020D010EF324D96E0A
:1017A600000EF420DA6EDECF60F0DDCF61F060C0AF
:1017B600D9FF61C0DAFF5E50DF1A62501200010ED7
:1017C6000001846F80518111D8A4ECEF0BF0EEEF8D
:1017D6000BF001EF0CF0000E846F20EF0CF0F28E90
:1017E600F28CF28820EF0CF0F28EF28CF08620EF6D
:1017F6000CF0F28EF28CF08820EF0CF020EE04F064
:101806008051D9268151DA22DF50826F836B835152
:10181600000AD8B411EF0CF0EEEF0BF08251000A7B
:10182600D8B4F2EF0BF0010AD8B4F7EF0BF0030AC5
:10183600D8B4FCEF0BF0EEEF0BF0845112005AC057
:1018460090F08DC0D9FF8EC0DAFFDF50070B000184
:101856008F6F90518F19F80B8F19906F8DC0D9FF2C
:101866008EC0DAFFDF30E832E832070B8F6F8F4722
:101876008F478F4790518F19C70B8F19906F909D87
:101886008DC0D9FF8EC0DAFFDFAC02D0908F02D0B8
:101896000001909F8D518E11D8A454EF0CF056EF95
:1018A6000CF058EF0CF05EEF0CF0900E8A6F000E05
:1018B6008B6F79EC0DF0120000018C518D11D8A4BC
:1018C60067EF0CF069EF0CF06BEF0CF09BEF0CF090
:1018D6008CC080F08DC081F0D7EC0CF000018E6FCB
:1018E6008CC080F08DC081F011EC0DF000018E13DC
:1018F6008CC080F08DC081F0A4EC0AF000018E133C
:101906008CC089F08DC08AF0D8EC0DF000018E13E2
:101916008CC083F08DC084F03BEC0BF000018E137D
:101926008CC080F08DC081F0E2EC0BF000018E13CC
:10193600120057C066F063C0D9FF64C0DAFFDF50FB
:10194600070B656E66506518F80B6518666E63C002
:10195600D9FF64C0DAFFDF30E832E832070B656E84
:1019660065466546654666506518C70B6518666E1A
:10197600669C63C0D9FF64C0DAFFDFAC02D0668E16
:1019860001D0669E63506410D8A4CCEF0CF0CEEF65
:101996000CF0D0EF0CF0D6EF0CF0660E5B6E000E7E
:1019A6005C6E94EC0BF01200010E0001846F805106
:1019B6008111D8A4E1EF0CF0E3EF0CF0F0EF0CF09E
:1019C600000E846F0FEF0DF0F2980FEF0DF0F0960A
:1019D6000FEF0DF0F0980FEF0DF020EE04F08051B0
:1019E600D9268151DA22DF50826F836B8351000A38
:1019F600D8B400EF0DF0E3EF0CF08251000AD8B432
:101A0600E7EF0CF0010AD8B4EAEF0CF0030AD8B4F9
:101A1600EDEF0CF0E3EF0CF084511200010E000123
:101A2600846F80518111D8A41BEF0DF01DEF0DF0CE
:101A36002AEF0DF0000E846F49EF0DF0F29249EF98
:101A46000DF0F09049EF0DF0F09249EF0DF020EE19
:101A560004F08051D9268151DA22DF50826F836BE0
:101A66008351000AD8B43AEF0DF01DEF0DF0825104
:101A7600000AD8B421EF0DF0010AD8B424EF0DF016
:101A8600030AD8B427EF0DF01DEF0DF084511200B4
:101A96002F0E00018C6F000E8D6F5FEC0CF0290E7F
:101AA60000018C6F000E8D6F5FEC0CF0230E0001B1
:101AB6008C6F000E8D6F5FEC0CF0370E00018D6F92
:101AC600000E8E6F22EC0CF0360E00018D6F000EAC
:101AD6008E6F22EC0CF0350E00018D6F000E8E6FAE
:101AE60022EC0CF075EF0DF007EF00F000018A51C3
:101AF6008B11D8A481EF0DF083EF0DF087EF0DF079
:101B0600000E8C6F9FEF0DF08AC080F08BC081F0C5
:101B160066EC09F000018C6F8AC080F08BC081F002
:101B26008AC0D9FF8BC0DAFF000EDFBE010E826FBE
:101B36000BEC0AF000018C6F8C511200890F8A0F92
:101B46008B0F8C0F8D0F800F810F820F830F840FE9
:101B5600920F930F940F950F960F01010101761DB9
:101B6600510102015A1D49000101681D4101000190
:031B7600120A024E
:101B7A00420EF66E1B0EF76E000EF86E00EE01F0C6
:101B8A0010EE37F00900F5CFEEFFE550E150FAE12B
:101B9A0000EE38F0230EEE6AE806FDE16D906D92D4
:101BAA0000014BEF0DF0000189518A11D8A4E0EF32
:101BBA000DF0E2EF0DF0E6EF0DF0000E8B6FF0EF97
:101BCA000DF0020E8925806F000E8A21816F66EC66
:101BDA0009F000018B6F8B511200F0924E504F109A
:101BEA00D8B4FAEF0DF0FCEF0DF008EF0EF002D8C2
:101BFA0008EF0EF00500FA6E4E50FD6E4F50FE6E65
:101C0A00FF6AFA5012001200F09050505110D8B4E6
:101C1A0011EF0EF013EF0EF01FEF0EF002D81FEFC8
:101C2A000EF00500FA6E5050FD6E5150FE6EFF6ABE
:101C3A00FA5012001200F29252505310D8B428EF00
:101C4A000EF02AEF0EF036EF0EF002D836EF0EF055
:101C5A000500FA6E5250FD6E5350FE6EFF6AFA503E
:101C6A0012001200010E0001826F80518111D8A466
:101C7A0041EF0EF043EF0EF047EF0EF0000E826FC9
:101C8A004BEF0EF080C04EF081C04FF0825112002F
:101C9A00010E0001826F80518111D8A457EF0EF016
:101CAA0059EF0EF05DEF0EF0000E826F61EF0EF04D
:101CBA0080C050F081C051F082511200010E000123
:101CCA00826F80518111D8A46DEF0EF06FEF0EF084
:101CDA0073EF0EF0000E826F77EF0EF080C052F0B5
:101CEA0081C053F0825112005B6EF2905B50D8A40F
:101CFA0081EF0EF083EF0EF085EF0EF085EF0EF018
:101D0A0012005B6EF2905B50D8A48EEF0EF090EF4B
:101D1A000EF092EF0EF092EF0EF012005B6EF29060
:101D2A005B50D8A49BEF0EF09DEF0EF09FEF0EF0E4
:101D3A009FEF0EF012005B6EF2905B50D8A4A8EFF2
:101D4A000EF0AAEF0EF0ACEF0EF0ACEF0EF01200B0
:101D5A00360E636E000E646E9CEC0CF01200370EA9
:101D6A00636E000E646E9CEC0CF01200350E636E0E
:0A1D7A00000E646E9CEC0CF01200E9
:020000040020DA
:08000000FFFFFFFFFFFFFFFF00
:020000040030CA
:0E000000FF071F1FFF8385FF0FC00FE00F409B
:00000001FF
