:04000000B3EF7DF0ED
:10FB3E00890F8A0F8B0F8C0F8D0F800F810F820F05
:10FB4E00830F840F920F930F940F950F960F030B45
:10FB5E00130001020A1200003E0EF66EFB0EF76E47
:10FB6E00000EF86E00EE01F010EE28F00900F5CF51
:10FB7E00EEFFE550E150FAE100EE3EF0070EEE6AC0
:10FB8E00E806FDE1000EF86E000121EF7EF0335025
:10FB9E003410D8A4D5EF7DF0D7EF7DF0DBEF7DF0FC
:10FBAE00000E356EF1EF7DF033C029F034C02AF02F
:10FBBE005EEC7FF0356E33C029F034C02AF033C0CE
:10FBCE00D9FF34C0DAFF000EDFBE010E2B6EC8EC7B
:10FBDE007EF0356E3550120036503710D8A4FAEF3D
:10FBEE007DF0FCEF7DF0FEEF7DF020EF7EF036C075
:10FBFE0033F037C034F0CEEC7DF0386E010E362483
:10FC0E00336E000E3720346ECEEC7DF0386E020E61
:10FC1E003624336E000E3720346ECEEC7DF0386E07
:10FC2E00030E3624336E000E3720346ECEEC7DF08C
:10FC3E00386E1200240E366E000E376EF3EC7DF029
:10FC4E001F0E366E000E376EF3EC7DF0000E3D6E1D
:10FC5E00000E3C6E240E336E000E346E3CC035F03A
:10FC6E003DC036F064EC7EF01F0E336E000E346E27
:10FC7E003CC035F03DC036F064EC7EF0060E3B6EB7
:10FC8E00130E3A6EAE0EE82EFED73A2EFCD73B2E52
:10FC9E00FAD73C4A3D2A3DBE5EEF7EF03D5009E16B
:10FCAE000A0E3C5CD8A05EEF7EF060EF7EF031EF86
:10FCBE007EF02DEF7EF000EF00F033503410D8A41C
:10FCCE006BEF7EF06DEF7EF07DEF7EF036BE79EF5E
:10FCDE007EF0365009E10A0E355CD8A079EF7EF041
:10FCEE007BEF7EF07DEF7EF0C7EF7EF033C029F024
:10FCFE0034C02AF03550010B2B6EC8EC7EF0396EF5
:10FD0E00010E3324296E000E34202A6E363436301E
:10FD1E00386E3530376E3750010B2B6EC8EC7EF0D7
:10FD2E00396E020E3324296E000E34202A6E35C031
:10FD3E0037F036C038F0383438323732383438325B
:10FD4E0037323750010B2B6EC8EC7EF0396E030E36
:10FD5E003324296E000E34202A6E35C037F036C09B
:10FD6E0038F0383438323732383438323732383473
:10FD7E00383237323750010B2B6EC8EC7EF0396EAD
:10FD8E001200010E326E29502A10D8B4D1EF7EF037
:10FD9E00D3EF7EF0E4EF7EF029C0D9FF2AC0DAFF60
:10FDAE00DF30E832E832070B2C6E070E2C64E2EFE0
:10FDBE007EF0E4EF7EF047EF7FF0000E326E5CEFE8
:10FDCE007FF029C0D9FF2AC0DAFFDF30E832E832EF
:10FDDE00070B2C6E010E2D6E2C2AF8EF7EF0D890AC
:10FDEE002D362C2EF6EF7EF02D50FF0A2E6E29C0EA
:10FDFE00D9FF2AC0DAFFDF50070B2F6E2F50020DEE
:10FE0E00010EF324D96E000EF420DA6EDECF30F040
:10FE1E00DDCF31F030C0D9FF31C0DAFF2E50DF1602
:10FE2E005CEF7FF029C0D9FF2AC0DAFFDF30E8325D
:10FE3E00E832070B2C6E010E2D6E2C2A29EF7FF067
:10FE4E00D8902D362C2E27EF7FF029C0D9FF2AC04F
:10FE5E00DAFFDF50070B2E6E2E50020D010EF3242B
:10FE6E00D96E000EF420DA6EDECF2FF0DDCF30F03B
:10FE7E002FC0D9FF30C0DAFF2D50DF125CEF7FF0BC
:10FE8E002B502C6E2D6A2D50000AD8B451EF7FF0F6
:10FE9E00E4EF7EF02C50000AD8B4E8EF7EF0010AB1
:10FEAE00D8B419EF7FF0E4EF7EF032501200010E5D
:10FEBE00316E29502A10D8B467EF7FF069EF7FF0CA
:10FECE007AEF7FF029C0D9FF2AC0DAFFDF30E8329F
:10FEDE00E832070B2B6E070E2B6478EF7FF07AEF6C
:10FEEE007FF0DDEF7FF0000E316EFEEF7FF029C068
:10FEFE00D9FF2AC0DAFFDF30E832E832070B2B6E6B
:10FF0E00010E2C6E2B2A8EEF7FF0D8902C362B2ED6
:10FF1E008CEF7FF02C50FF0A2D6E29C0D9FF2AC01E
:10FF2E00DAFFDF50070B2E6E2E50020D150EF32446
:10FF3E00D96E000EF420DA6EDECF2FF0DDCF30F06A
:10FF4E002FC0D9FF30C0DAFF2D50DF16FEEF7FF045
:10FF5E0029C0D9FF2AC0DAFFDF30E832E832070BBA
:10FF6E002B6E010E2C6E2B2ABFEF7FF0D8902C3605
:10FF7E002B2EBDEF7FF029C0D9FF2AC0DAFFDF504C
:10FF8E00070B2D6E2D50020D150EF324D96E000E9B
:10FF9E00F420DA6EDECF2EF0DDCF2FF02EC0D9FF9B
:10FFAE002FC0DAFF2C50DF12FEEF7FF029C0D9FFF1
:10FFBE002AC0DAFFDFBCE6EF7FF0E9EF7FF0010E3B
:10FFCE00EAEF7FF0000E2B6E2C6A2C50000AD8B48C
:10FFDE00F3EF7FF07AEF7FF02B50000AD8B47EEF6C
:10FFEE007FF0010AD8B4AFEF7FF07AEF7FF0315097
:02FFFE001200EF
:020000040020DA
:08000000FFFFFFFFFFFFFFFF00
:020000040030CA
:0E000000FF071F1FFF8385FF0FC00FE00F409B
:00000001FF
