:04000000D5EF7CF0CC
:10F98B00890F8A0F8B0F8C0F8D0F800F810F820FBA
:10F99B00830F840F920F930F940F950F960F408B3D
:10F9AB000EF66EF90EF76E000EF86E00EE01F0100B
:10F9BB00EE1FF00900F5CFEEFFE550E150FAE1350F
:10F9CB006A346A336A326A000EF86E000135EF7ED4
:10F9DB00F029502A10D8A4F5EF7CF0F7EF7CF0FB60
:10F9EB00EF7CF0000E2B6E09EF7DF029C020F02A82
:10F9FB00C021F0BCEC7EF02B6E29C020F02AC02178
:10FA0B00F05EEC7FF02B6E2B50120033C02CF029E4
:10FA1B00C0D9FF2AC0DAFFDF50070B2B6E2C502BFF
:10FA2B0018F80B2B182C6E29C0D9FF2AC0DAFFDF70
:10FA3B0030E832E832070B2B6E2B462B462B462C2D
:10FA4B00502B18C70B2B182C6E2C9C2C9E29502A34
:10FA5B0010D8A433EF7DF035EF7DF037EF7DF03D1F
:10FA6B00EF7DF02C0E206E000E216E5EEC7FF012FF
:10FA7B000034C02CF029C0D9FF2AC0DAFFDF5007B1
:10FA8B000B2B6E2C502B18F80B2B182C6E29C0D966
:10FA9B00FF2AC0DAFFDF30E832E832070B2B6E2B80
:10FAAB00462B462B462C502B18C70B2B182C6E2C89
:10FABB009C2C8E29502A10D8A466EF7DF068EF7D20
:10FACB00F06AEF7DF070EF7DF02C0E206E000E21B2
:10FADB006E5EEC7FF0120035C02FF02CC0D9FF2DDD
:10FAEB00C0DAFFDF50070B2E6E2F502E18F80B2E9F
:10FAFB00182F6E2CC0D9FF2DC0DAFFDF30E832E8AB
:10FB0B0032070B2E6E2E462E462E462F502E18C722
:10FB1B000B2E182F6E2F9C2CC0D9FF2DC0DAFFDFB8
:10FB2B00AC02D02F8E01D02F9E2C502D10D8A4A11B
:10FB3B00EF7DF0A3EF7DF0A5EF7DF0ABEF7DF02F28
:10FB4B000E296E000E2A6EEEEC7CF0120032C02BEA
:10FB5B00F028C0D9FF29C0DAFFDF50070B2A6E2B24
:10FB6B00502A18F80B2A182B6E28C0D9FF29C0DA97
:10FB7B00FFDF30E832E832070B2A6E2A462A462A84
:10FB8B00462B502A18C70B2A182B6E2B9C28C0D932
:10FB9B00FF29C0DAFFDFAC02D02B8E01D02B9E28C1
:10FBAB00502910D8A4DCEF7DF0DEEF7DF0E0EF7D87
:10FBBB00F0E6EF7DF02B0E206E000E216EE7EC7D54
:10FBCB00F01200010E276E20502110D8B4F0EF7DFB
:10FBDB00F0F2EF7DF003EF7EF020C0D9FF21C0DA09
:10FBEB00FFDF30E832E832070B226E070E2264018A
:10FBFB00EF7EF003EF7EF007EF7EF0000E276E3303
:10FC0B00EF7EF020C0D9FF21C0DAFFDF30E832E809
:10FC1B0032070B226E010E236E222A17EF7EF0D8CD
:10FC2B00902336222E15EF7EF020C0D9FF21C0DAAB
:10FC3B00FFDF50070B246E2450020D010EF324D965
:10FC4B006E000EF420DA6EDECF25F0DDCF26F02528
:10FC5B00C0D9FF26C0DAFF2350DF1A275012001F2E
:10FC6B000E2C6E000E2D6E71EC7DF0020E316E04BB
:10FC7B000E306EBA0EE82EFED7302EFCD7312EFA90
:10FC8B00D700D01F0E296E000E2A6E0BEC7DF002F2
:10FC9B000E316E040E306EBA0EE82EFED7302EFCEF
:10FCAB00D7312EFAD700D01F0E2C6E000E2D6E7191
:10FCBB00EC7DF0020E316E040E306EBA0EE82EFEA5
:10FCCB00D7302EFCD7312EFAD700D01F0E296E005D
:10FCDB000E2A6E0BEC7DF0020E316E040E306EBAF6
:10FCEB000EE82EFED7302EFCD7312EFAD700D01FC0
:10FCFB000E2C6E000E2D6E71EC7DF0020E316E042B
:10FD0B000E306EBA0EE82EFED7302EFCD7312EFAFF
:10FD1B00D700D01F0E296E000E2A6E0BEC7DF00261
:10FD2B000E316E040E306EBA0EE82EFED7302EFC5E
:10FD3B00D7312EFAD700D01F0E296E000E2A6E3E39
:10FD4B00EC7DF0030E316E8A0E306E560EE82EFEF1
:10FD5B00D7302EFCD7312EFAD71F0E286E000E2966
:10FD6B006EACEC7DF0A7EF7EF000EF00F0010E28FB
:10FD7B006E20502110D8B4C5EF7EF0C7EF7EF0D8BF
:10FD8B00EF7EF020C0D9FF21C0DAFFDF30E832E888
:10FD9B0032070B226E070E2264D6EF7EF0D8EF7E71
:10FDAB00F03BEF7FF0000E286E5CEF7FF020C0D9A8
:10FDBB00FF21C0DAFFDF30E832E832070B226E0199
:10FDCB000E236E222AECEF7EF0D8902336222EEAF9
:10FDDB00EF7EF02350FF0A246E20C0D9FF21C0DA3A
:10FDEB00FFDF50070B256E2550020D150EF324D99E
:10FDFB006E000EF420DA6EDECF26F0DDCF27F02674
:10FE0B00C0D9FF27C0DAFF2450DF165CEF7FF0204C
:10FE1B00C0D9FF21C0DAFFDF30E832E832070B220E
:10FE2B006E010E236E222A1DEF7FF0D8902336220F
:10FE3B002E1BEF7FF020C0D9FF21C0DAFFDF500768
:10FE4B000B246E2450020D150EF324D96E000EF404
:10FE5B0020DA6EDECF25F0DDCF26F025C0D9FF26C8
:10FE6B00C0DAFF2350DF125CEF7FF020C0D9FF21F7
:10FE7B00C0DAFFDFBC44EF7FF047EF7FF0010E48A5
:10FE8B00EF7FF0000E226E236A2350000AD8B45184
:10FE9B00EF7FF0D8EF7EF02250000AD8B4DCEF7E73
:10FEAB00F0010AD8B40DEF7FF0D8EF7EF028501296
:10FEBB0000010E286E20502110D8B467EF7FF06937
:10FECB00EF7FF07AEF7FF020C0D9FF21C0DAFFDFA0
:10FEDB0030E832E832070B226E070E226478EF7F90
:10FEEB00F07AEF7FF0DDEF7FF0000E286EFEEF7FF4
:10FEFB00F020C0D9FF21C0DAFFDF30E832E832074B
:10FF0B000B226E010E236E222A8EEF7FF0D89023E8
:10FF1B0036222E8CEF7FF02350FF0A246E20C0D99F
:10FF2B00FF21C0DAFFDF50070B256E2550020D01B4
:10FF3B000EF324D96E000EF420DA6EDECF26F0DD40
:10FF4B00CF27F026C0D9FF27C0DAFF2450DF16FEDB
:10FF5B00EF7FF020C0D9FF21C0DAFFDF30E832E8B5
:10FF6B0032070B226E010E236E222ABFEF7FF0D8D1
:10FF7B00902336222EBDEF7FF020C0D9FF21C0DAAF
:10FF8B00FFDF50070B246E2450020D010EF324D912
:10FF9B006E000EF420DA6EDECF25F0DDCF26F025D5
:10FFAB00C0D9FF26C0DAFF2350DF12FEEF7FF0200F
:10FFBB00C0D9FF21C0DAFFDFBEE6EF7FF0E9EF7FAC
:10FFCB00F0010EEAEF7FF0000E226E236A23500041
:10FFDB000AD8B4F3EF7FF07AEF7FF02250000AD803
:10FFEB00B47EEF7FF0010AD8B4AFEF7FF07AEF7FEA
:05FFFB00F02850120087
:020000040020DA
:08000000FFFFFFFFFFFFFFFF00
:020000040030CA
:0E000000FF071F1FFF8385FF0FC00FE00F409B
:00000001FF
