:040000003AEF0CF0D7
:0D100000000103071F1F0703012569000001
:10100E00010E376E2F503010D8B410EF08F012EFDB
:10101E0008F023EF08F02FC0D9FF30C0DAFFDF3021
:10102E00E832E832070B316E070E316421EF08F01B
:10103E0023EF08F086EF08F0000E376EA7EF08F0EA
:10104E002FC0D9FF30C0DAFFDF30E832E832070BAD
:10105E00316E010E326E312A37EF08F0D8903236EB
:10106E00312E35EF08F03250FF0A336E2FC0D9FF04
:10107E0030C0DAFFDF50070B346E3450020D150E00
:10108E00F324D96E000EF420DA6EDECF35F0DDCF0C
:10109E0036F035C0D9FF36C0DAFF3350DF16A7EF72
:1010AE0008F02FC0D9FF30C0DAFFDF30E832E83267
:1010BE00070B316E010E326E312A68EF08F0D890B0
:1010CE003236312E66EF08F02FC0D9FF30C0DAFF6E
:1010DE00DF50070B336E3350020D150EF324D96E0D
:1010EE00000EF420DA6EDECF34F0DDCF35F034C0F2
:1010FE00D9FF35C0DAFF3250DF12A7EF08F02FC04C
:10110E00D9FF30C0DAFFDFBC8FEF08F092EF08F0A6
:10111E00010E93EF08F0000E316E326A3250000A63
:10112E00D8B49CEF08F023EF08F03150000AD8B481
:10113E0027EF08F0010AD8B458EF08F023EF08F0B3
:10114E0037501200010E386E2F503010D8B4B2EF57
:10115E0008F0B4EF08F0C5EF08F02FC0D9FF30C08B
:10116E00DAFFDF30E832E832070B326E070E3264F8
:10117E00C3EF08F0C5EF08F028EF09F0000E386E47
:10118E003DEF09F02FC0D9FF30C0DAFFDF30E83273
:10119E00E832070B326E010E336E322AD9EF08F0A9
:1011AE00D8903336322ED7EF08F03350FF0A346E14
:1011BE002FC0D9FF30C0DAFFDF50070B356E355028
:1011CE00020D010EF324D96E000EF420DA6EDECF7E
:1011DE0036F0DDCF37F036C0D9FF37C0DAFF3450E6
:1011EE00DF163DEF09F02FC0D9FF30C0DAFFDF3038
:1011FE00E832E832070B326E010E336E322A0AEFF6
:10120E0009F0D8903336322E08EF09F02FC0D9FFEF
:10121E0030C0DAFFDF50070B346E3450020D010E72
:10122E00F324D96E000EF420DA6EDECF35F0DDCF6A
:10123E0036F035C0D9FF36C0DAFF3350DF123DEF3E
:10124E0009F03150326E336A3350000AD8B432EF9F
:10125E0009F0C5EF08F03250000AD8B4C9EF08F013
:10126E00010AD8B4FAEF08F0C5EF08F038501200B2
:10127E00000E4A6E45504610D8A448EF09F04AEFCA
:10128E0009F04CEF09F0D0EF09F045C02FF046C041
:10129E0030F007EC08F0496E010E45242F6E000E5B
:1012AE004620306E07EC08F0496E000E4A6E4A502A
:1012BE004524476E000E4620486E020E47242F6EC0
:1012CE00000E4820306E07EC08F04A2A070E4A64DA
:1012DE0073EF09F075EF09F05EEF09F01A0E476E25
:1012EE00F80EE82EFED7472EFCD700D045C03CF0B6
:1012FE0046C03DF0380E3E6EFFEC0AF0070E476E0C
:10130E007D0EE82EFED7472EFCD700F045C03CF0F0
:10131E0046C03DF0380E3E6EFFEC0AF0320EE82E5F
:10132E00FED745C03CF046C03DF0380E3E6EFFEC99
:10133E000AF045C03CF046C03DF0010E3E6EFFEC9B
:10134E000AF045C03CF046C03DF0020E3E6EFFEC8A
:10135E000AF045C03CF046C03DF0060E3E6EFFEC76
:10136E000AF045C03CF046C03DF00C0E3E6EFFEC60
:10137E000AF045C03CF046C03DF0380E3E6EFFEC24
:10138E000AF045C03CF046C03DF0800E3E6EFFECCC
:10139E000AF01200000E466E41504210D8A4DAEF49
:1013AE0009F0DCEF09F0DEEF09F062EF0AF041C060
:1013BE002FF042C030F007EC08F0456E010E4124CC
:1013CE002F6E000E4220306E07EC08F0456E000EB8
:1013DE00466E46504124436E000E4220446E020E6D
:1013EE0043242F6E000E4420306E07EC08F0462A80
:1013FE00030E466405EF0AF007EF0AF0F0EF09F06E
:10140E001A0E436EF80EE82EFED7432EFCD700D0F0
:10141E0041C03DF042C03EF0380E3F6E8AEC0BF0FC
:10142E00070E436E7D0EE82EFED7432EFCD700F03E
:10143E0041C03DF042C03EF0380E3F6E8AEC0BF0DC
:10144E00320EE82EFED741C03DF042C03EF0380EBF
:10145E003F6E8AEC0BF041C03DF042C03EF0010EF3
:10146E003F6E8AEC0BF041C03DF042C03EF0020EE2
:10147E003F6E8AEC0BF041C03DF042C03EF0060ECE
:10148E003F6E8AEC0BF041C03DF042C03EF00C0EB8
:10149E003F6E8AEC0BF041C03DF042C03EF0280E8C
:1014AE003F6E8AEC0BF041C03DF042C03EF0800E24
:1014BE003F6E8AEC0BF01200010E4B6E480698EF51
:1014CE000AF045C03CF046C03DF04850800F3E6EDD
:1014DE00FFEC0AF04B6EB5EF0AF045C03CF046C08B
:1014EE003DF04850C00F3E6EFFEC0AF04B6EB5EF6C
:1014FE000AF045C03CF046C03DF04850940F3E6E99
:10150E00FFEC0AF04B6EB5EF0AF045C03CF046C05A
:10151E003DF04850D40F3E6EFFEC0AF04B6EB5EF27
:10152E000AF04750496E4A6A4A50000AD8B4A2EFF0
:10153E000AF0B5EF0AF04950010AD8B468EF0AF084
:10154E00030AD8B474EF0AF0010AD8B480EF0AF097
:10155E00070AD8B48CEF0AF0B5EF0AF04B50120020
:10156E00000E446E3C503D10D8A4C0EF0AF0C2EFFE
:10157E000AF0C6EF0AF0000E436EFDEF0AF03CC013
:10158E002FF03DC030F0010E316EA9EC08F0000EC8
:10159E00446E44503C243F6E000E3D20406E020EC1
:1015AE003F242F6E000E4020306E44C041F03EC0EE
:1015BE0042F0412AE5EF0AF0D8904232412EE3EF95
:1015CE000AF04250010B316EA9EC08F0442A070EC6
:1015DE004464F4EF0AF0F6EF0AF0D0EF0AF03CC0E4
:1015EE0039F03DC03AF055EC0CF0436E435012000A
:1015FE00000E446E3C503D10D8A408EF0BF00AEFDD
:10160E000BF00EEF0BF0000E436E45EF0BF03CC0EF
:10161E002FF03DC030F0000E316EA9EC08F0000E38
:10162E00446E44503C243F6E000E3D20406E020E30
:10163E003F242F6E000E4020306E44C041F03EC05D
:10164E0042F0412A2DEF0BF0D8904232412E2BEF73
:10165E000BF04250010B316EA9EC08F0442A070E34
:10166E0044643CEF0BF03EEF0BF018EF0BF03CC078
:10167E0039F03DC03AF055EC0CF0436E4350120079
:10168E00000E5B6E52505310D8A450EF0BF052EF79
:10169E000BF054EF0BF089EF0BF052C03CF053C03F
:1016AE003DF05850080DF350400F3E6EFFEC0AF01F
:1016BE00000E5B6E52C03CF053C03DF05B505624A2
:1016CE00596E000E57205A6E59C0F6FF5AC0F7FFDA
:1016DE000800F5CF3EF0B7EC0AF05B2A070E5B640C
:1016EE007BEF0BF07DEF0BF061EF0BF052C04CF087
:1016FE0053C04DF054C04EF055C04FF058C050F08E
:10170E00F7EC0BF012003D503E10D8A491EF0BF009
:10171E0093EF0BF097EF0BF0000E406EC1EF0BF056
:10172E003DC02FF03EC030F0000E316EA9EC08F037
:10173E00406E3DC039F03EC03AF03F380F0B3B6E65
:10174E00C3EC0BF0406E3DC039F03EC03AF06FEC8A
:10175E000CF0406E3DC039F03EC03AF03FC03BF059
:10176E00C3EC0BF0406E3DC039F03EC03AF06FEC6A
:10177E000CF0406E40501200020E39242F6E000EF7
:10178E003A20306E3B50010B316EA9EC08F0030E7F
:10179E0039242F6E000E3A20306ED8903B30010B5C
:1017AE00316EA9EC08F0040E39242F6E000E3A208B
:1017BE00306E3B40E8423F0B010B316EA9EC08F056
:1017CE00050E39242F6E000E3A20306E3B38E84657
:1017DE001F0B010B316EA9EC08F03C6E3C50120051
:1017EE004C504D10D8A4FEEF0BF000EF0CF004EFB0
:1017FE000CF0000E516E18EF0CF04CC045F04DC0C1
:10180E0046F04EC047F04FC048F063EC0AF0516E00
:10181E004CC03CF04DC03DF050C03EF0B7EC0AF06D
:10182E00516E51501200290E416E000E426ED1ECD7
:10183E0009F01F0E456E000E466E3FEC09F01F0EAE
:10184E00526E000E536E010E546E140E556E010E36
:10185E00566E100E576E000E586E47EC0BF026EFBC
:10186E000CF000EF00F0120EF66E190EF76E000E71
:10187E00F86E00EE01F010EE2EF00900F5CFEEFF3F
:10188E00E550E150FAE100EE5CF00D0EEE6AE8066E
:10189E00FDE1000EF86E00011AEF0CF0010E392476
:1018AE002F6E000E3A20306E010E316EA9EC08F04C
:1018BE0000D000D000F0010E39242F6E000E3A2019
:1018CE00306E000E316EA9EC08F03B6E3B501200EC
:1018DE00010E39242F6E000E3A20306E010E316E3D
:1018EE00A9EC08F000D000D000F0010E39242F6EC4
:1018FE00000E3A20306E000E316EA9EC08F03B6EF1
:10190E003B501200890F8A0F8B0F8C0F8D0F800F9B
:10191E00810F820F830F840F920F930F940F950FE9
:10192E00960F323A030B131B232B333B020A121A68
:02193E00222A5B
:020000040020DA
:08000000FFFFFFFFFFFFFFFF00
:020000040030CA
:0E000000FF071F1FFF8385FF0FC00FE00F409B
:00000001FF
