:0400000097EF7FF007
:10FF0F00890F8A0F8B0F8C0F8D0F800F810F820F30
:10FF1F00830F840F920F930F940F950F960F800FEF
:10FF2F000EF66EFF0EF76E000EF86E00EE01F0107B
:10FF3F00EE1FF00900F5CFEEFFE550E150FAE100BA
:10FF4F000EF86E0001ACEF7FF0400E206E030EC472
:10FF5F00EC7FF0020E256E040E246EBA0EE82EFE14
:10FF6F00D7242EFCD7252EFAD700D0030EE2EC7F34
:10FF7F00F0B1EF7FF000EF00F0236E040E2364CB9F
:10FF8F00EF7FF0CDEF7FF0CFEF7FF0E1EF7FF0234A
:10FF9F0050020D150EF324D96E000EF420DA6EDE2A
:10FFAF00CF21F0DDCF22F021C0D9FF22C0DAFF2010
:10FFBF00C0DFFF1200226E040E2264E9EF7FF0EB28
:10FFCF00EF7FF0EDEF7FF0FFEF7FF02250020D019A
:10FFDF000EF324D96E000EF420DA6EDECF20F0DDA2
:10FFEF00CF21F020C0D9FF21C0DAFFFF0EDF1A1298
:01FFFF000001
:020000040020DA
:08000000FFFFFFFFFFFFFFFF00
:020000040030CA
:0E000000FF071F1FFF8385FF0FC00FE00F409B
:00000001FF
