:0400000007EF00F016
:0A00080066820BED08F0B7EF0AF076
:10100000003738392F3435362A3132332D23303DED
:051010002B2569000022
:101016000600F2A811EF08F013EF08F01CEF08F035
:10102600F2A218EF08F01AEF08F01CEF08F031EC06
:101036000BF0F0A621EF08F023EF08F02CEF08F0F4
:10104600F0A028EF08F02AEF08F02CEF08F02FECBC
:101056000BF0F0A831EF08F033EF08F03CEF08F0A2
:10106600F0A238EF08F03AEF08F03CEF08F02DEC6C
:101076000BF0F2A641EF08F043EF08F05EEF08F040
:10108600F2A048EF08F04AEF08F05EEF08F081A8FA
:101096004FEF08F051EF08F05EEF08F04F04D8A4C8
:1010A60057EF08F059EF08F05EEF08F0000E4F6EAC
:1010B600000E20EC0BF0F2A663EF08F065EF08F0E7
:1010C60080EF08F0F2A06AEF08F06CEF08F080EF0E
:1010D60008F081B871EF08F073EF08F080EF08F0C0
:1010E6004F50D8A479EF08F07BEF08F080EF08F0B6
:1010F600010E4F6E010E20EC0BF0F2A685EF08F004
:1011060087EF08F0A2EF08F0F2A08CEF08F08EEF60
:1011160008F0A2EF08F081AA93EF08F095EF08F027
:10112600A2EF08F04E04D8A49BEF08F09DEF08F05C
:10113600A2EF08F0000E4E6E000E13EC0BF0F2A6B6
:10114600A7EF08F0A9EF08F0C4EF08F0F2A0AEEFA1
:1011560008F0B0EF08F0C4EF08F081BAB5EF08F078
:10116600B7EF08F0C4EF08F04E50D8A4BDEF08F072
:10117600BFEF08F0C4EF08F0010E4E6E010E13EC3F
:101186000BF0F2A6C9EF08F0CBEF08F0E6EF08F097
:10119600F2A0D0EF08F0D2EF08F0E6EF08F081AC4D
:1011A600D7EF08F0D9EF08F0E6EF08F04D04D8A421
:1011B600DFEF08F0E1EF08F0E6EF08F0000E4D6E05
:1011C600000E06EC0BF0F2A6EBEF08F0EDEF08F0E0
:1011D60008EF09F0F2A0F2EF08F0F4EF08F008EFDC
:1011E60009F081BCF9EF08F0FBEF08F008EF09F011
:1011F6004D50D8A401EF09F003EF09F008EF09F00C
:10120600010E4D6E010E06EC0BF0F2A60DEF09F085
:101216000FEF09F02AEF09F0F2A014EF09F016EF2C
:1012260009F02AEF09F081AE1BEF09F01DEF09F076
:101236002AEF09F04C04D8A423EF09F025EF09F0B2
:101246002AEF09F0000E4C6E000EF9EC0AF0F2A639
:101256002FEF09F031EF09F04CEF09F0F2A036EF6D
:1012660009F038EF09F04CEF09F081BE3DEF09F0C7
:101276003FEF09F04CEF09F04C50D8A445EF09F0C8
:1012860047EF09F04CEF09F0010E4C6E010EF9EC38
:101296000AF09DAC51EF09F053EF09F05CEF09F04D
:1012A6009EAC58EF09F05AEF09F05CEF09F033EC09
:1012B6000BF0669211005A6E88EF09F09280C9EF22
:1012C60009F09282C9EF09F09284C9EF09F092867B
:1012D600C9EF09F0928AC9EF09F09680C9EF09F0C3
:1012E6009682C9EF09F09684C9EF09F09384C9EF95
:1012F60009F09386C9EF09F09382C9EF09F0938844
:10130600C9EF09F09380C9EF09F05A50586E596A2F
:101316005950000AD8B492EF09F0C9EF09F05850B5
:10132600000AD8B461EF09F0010AD8B464EF09F0F5
:10133600030AD8B467EF09F0010AD8B46AEF09F0D6
:10134600070AD8B46DEF09F0010AD8B470EF09F0B6
:10135600030AD8B473EF09F0010AD8B476EF09F09E
:101366000F0AD8B479EF09F0010AD8B47CEF09F076
:10137600030AD8B47FEF09F0010AD8B482EF09F066
:10138600070AD8B485EF09F0C9EF09F012005850E2
:101396005910D8B4D1EF09F0D3EF09F0DCEF09F01A
:1013A6005A505B10D8A4DAEF09F0DCEF09F0E0EF51
:1013B60009F0000E5F6E2AEF0AF020EE06F0585094
:1013C600D9265950DA22DFA2EBEF09F0EDEF09F04A
:1013D60001EF0AF0C350C4CF5CF05D6A5CC05DF0FB
:1013E6005C6A5C26000E5D225AC0D9FF5BC0DAFF3C
:1013F6005CC0DEFF5DC0DDFF28EF0AF020EE06F0E0
:101406005850D9265950DA22DFB20CEF0AF00EEF07
:101416000AF0EDEF09F0C350C4CF5CF05D6A5CC022
:101426005DF05C6A5C26000E5D22060E5E6E5D3423
:101436005D325C325E2E1AEF0AF05AC0D9FF5BC0ED
:10144600DAFF5CC0DEFF5DC0DDFF010E5F6E5F5040
:10145600120060506110D8B433EF0AF035EF0AF08D
:101466003EEF0AF063506410D8A43CEF0AF03EEF5A
:101476000AF042EF0AF0000E656E64EF0AF060C0F3
:101486005BF061C05CF062C05DF09AEC0AF0656EDC
:1014960060C058F061C059F0E7EC0AF0656EC2B260
:1014A60057EF0AF059EF0AF052EF0AF060C058F011
:1014B60061C059F063C05AF064C05BF0CAEC09F031
:1014C600656E65501200500E606E000E616E000E65
:1014D600626E2C0E636E000E646E2CEC0AF0500EDB
:1014E600606E000E616E010E626E2A0E636E000E55
:1014F600646E2CEC0AF0500E606E000E616E020EE9
:10150600626E280E636E000E646E2CEC0AF0500EAE
:10151600606E000E616E030E626E260E636E000E26
:10152600646E2CEC0AF066EF0AF007EF00F05B50F1
:101536005C10D8A4A1EF0AF0A3EF0AF0A7EF0AF017
:10154600000E5F6EB5EF0AF05DC05EF05E465E4669
:10155600C2505E18C30B5E18C26E5D505EEC09F099
:10156600010E5F6E5F501200A40EF66E150EF76E3A
:10157600000EF86E00EE2EF010EE29F00900F5CF01
:10158600EEFFE550E150FAE100EE01F02D0EEE6AB5
:10159600E806FDE166906692000166EF0AF0890FA3
:1015A6008A0F8B0F8C0F8D0F800F810F820F830F89
:1015B600840F920F930F940F950F960F010101015F
:0715C6000000000505000212
:1015CE0058505910D8A4EEEF0AF0F0EF0AF0F4EFED
:1015DE000AF0000E5A6EF7EF0AF0C282010E5A6E32
:1015EE005A501200576EF2905750D8A401EF0BF0DC
:1015FE0003EF0BF005EF0BF005EF0BF01200576E3B
:10160E00F2905750D8A40EEF0BF010EF0BF012EF34
:10161E000BF012EF0BF01200576EF2905750D8A449
:10162E001BEF0BF01DEF0BF01FEF0BF01FEF0BF08E
:10163E001200576EF2905750D8A428EF0BF02AEFF5
:10164E000BF02CEF0BF02CEF0BF01200F0921200BF
:0C165E00F0901200F29212009E9C12000C
:020000040020DA
:08000000FFFFFFFFFFFFFFFF00
:020000040030CA
:0E000000FF071F1FFF8385FF0FC00FE00F409B
:00000001FF
