:04000000CFEF7CF0D2
:10F9540033503410D8A4B1EF7CF0B3EF7CF0B5EFA2
:10F964007CF0BBEF7CF033C030F034C031F0E8EC15
:10F974007CF01200890F8A0F8B0F8C0F8D0F800F74
:10F98400810F820F830F840F920F930F940F950FA3
:10F99400960FD201014301000A02780EF66EF90EA9
:10F9A400F76E000EF86E00EE01F010EE26F009007E
:10F9B400F5CFEEFFE550E150FAE13C6A3B6A3A6A62
:10F9C400396A000EF86E00015CEF7EF030503110A1
:10F9D400D8A4EFEF7CF0F1EF7CF0F5EF7CF0000EB3
:10F9E400326E03EF7DF030C027F031C028F0BCEC5C
:10F9F4007EF0326E30C027F031C028F05EEC7FF02C
:10FA0400326E325012003AC033F030C0D9FF31C0E8
:10FA1400DAFFDF50070B326E33503218F80B32180E
:10FA2400336E30C0D9FF31C0DAFFDF30E832E8325C
:10FA3400070B326E32463246324633503218C70B09
:10FA44003218336E339C339E30503110D8A42DEFCE
:10FA54007DF02FEF7DF031EF7DF037EF7DF0330E49
:10FA6400276E000E286E5EEC7FF012003BC033F070
:10FA740030C0D9FF31C0DAFFDF50070B326E33508C
:10FA84003218F80B3218336E30C0D9FF31C0DAFFA8
:10FA9400DF30E832E832070B326E32463246324605
:10FAA40033503218C70B3218336E339C338E3050B8
:10FAB4003110D8A460EF7DF062EF7DF064EF7DF04B
:10FAC4006AEF7DF0330E276E000E286E5EEC7FF039
:10FAD40012003CC036F033C0D9FF34C0DAFFDF5027
:10FAE400070B356E36503518F80B3518366E33C0A3
:10FAF400D9FF34C0DAFFDF30E832E832070B356E65
:10FB040035463546354636503518C70B3518366EEA
:10FB1400369C33C0D9FF34C0DAFFDFAC02D0368E56
:10FB240001D0369E33503410D8A49BEF7DF09DEF66
:10FB34007DF09FEF7DF0A5EF7DF0360E306E000E68
:10FB4400316EE8EC7CF0120027502810D8B4ADEFE9
:10FB54007DF0AFEF7DF0C9EF7DF027C0D9FF28C05D
:10FB6400DAFFDF30E832E832070B2B6E080E2B6029
:10FB7400BEEF7DF0C0EF7DF0C9EF7DF029502A1073
:10FB8400D8A4C7EF7DF0C9EF7DF0CBEF7DF0FCEF9B
:10FB94007DF027C0D9FF28C0DAFFDF30E832E83231
:10FBA400070B2B6E27C0D9FF28C0DAFFDF50070BE5
:10FBB4002C6E2C50020D0B0EF324D96E000EF42083
:10FBC400DA6EDECF2DF0DDCF2EF02DC0D9FF2EC0A2
:10FBD400DAFFDF502F6E2B2AF2EF7DF0D8902F3210
:10FBE4002B2EF0EF7DF02F50010B29C0D9FF2AC036
:10FBF400DAFFDF6E1200000E356E30503110D8B4CB
:10FC040006EF7EF008EF7EF011EF7EF032503310F5
:10FC1400D8A40FEF7EF011EF7EF013EF7EF05BEFD0
:10FC24007EF030C027F031C028F0350E296E000E6A
:10FC34002A6EA6EC7DF020EE02F03050D926315029
:10FC4400DA22DF50D8A429EF7EF02BEF7EF043EFC9
:10FC54007EF03504D8A431EF7EF033EF7EF03BEF35
:10FC64007EF032C0D9FF33C0DAFF000EDF6E5BEFE7
:10FC74007EF032C0D9FF33C0DAFF010EDF6E5BEFD6
:10FC84007EF020EE02F03050D9263150DA22DE0424
:10FC9400D8A44FEF7EF051EF7EF05BEF7EF0350499
:10FCA400D8A457EF7EF059EF7EF033EF7EF03BEFB0
:10FCB4007EF01200260E336E000E346E6BEC7DF077
:10FCC400250E336E000E346E6BEC7DF0220E336E17
:10FCD400000E346EAAEC7CF01F0E336E000E346EF0
:10FCE400AAEC7CF0010E376E010E386E220E306ED7
:10FCF400000E316E370E326E000E336EFDEC7DF069
:10FD04001F0E306E000E316E380E326E000E336EE2
:10FD1400FDEC7DF03750D8A492EF7EF094EF7EF0A6
:10FD24009CEF7EF0260E306E000E316E38EC7DF0C6
:10FD3400A2EF7EF0260E306E000E316E05EC7DF0E3
:10FD44003850D8A4A8EF7EF0AAEF7EF0B2EF7EF090
:10FD5400250E306E000E316E38EC7DF078EF7EF0BB
:10FD6400250E306E000E316E05EC7DF078EF7EF0DE
:10FD740000EF00F0010E2F6E27502810D8B4C5EF05
:10FD84007EF0C7EF7EF0D8EF7EF027C0D9FF28C001
:10FD9400DAFFDF30E832E832070B296E070E2964F8
:10FDA400D6EF7EF0D8EF7EF03BEF7FF0000E2F6EA3
:10FDB4005CEF7FF027C0D9FF28C0DAFFDF30E832DC
:10FDC400E832070B296E010E2A6E292AECEF7EF029
:10FDD400D8902A36292EEAEF7EF02A50FF0A2B6E9D
:10FDE40027C0D9FF28C0DAFFDF50070B2C6E2C5038
:10FDF400020D150EF324D96E000EF420DA6EDECF58
:10FE04002DF0DDCF2EF02DC0D9FF2EC0DAFF2B5000
:10FE1400DF165CEF7FF027C0D9FF28C0DAFFDF30A0
:10FE2400E832E832070B296E010E2A6E292A1DEFEB
:10FE34007FF0D8902A36292E1BEF7FF027C0D9FFF8
:10FE440028C0DAFFDF50070B2B6E2B50020D150E66
:10FE5400F324D96E000EF420DA6EDECF2CF0DDCF61
:10FE64002DF02CC0D9FF2DC0DAFF2A50DF125CEF31
:10FE74007FF027C0D9FF28C0DAFFDFBC44EF7FF052
:10FE840047EF7FF0010E48EF7FF0000E296E2A6ADB
:10FE94002A50000AD8B451EF7FF0D8EF7EF02950F1
:10FEA400000AD8B4DCEF7EF0010AD8B40DEF7FF07D
:10FEB400D8EF7EF02F501200010E2F6E275028101D
:10FEC400D8B467EF7FF069EF7FF07AEF7FF027C057
:10FED400D9FF28C0DAFFDF30E832E832070B296E99
:10FEE400070E296478EF7FF07AEF7FF0DDEF7FF083
:10FEF400000E2F6EFEEF7FF027C0D9FF28C0DAFF77
:10FF0400DF30E832E832070B296E010E2A6E292A07
:10FF14008EEF7FF0D8902A36292E8CEF7FF02A506E
:10FF2400FF0A2B6E27C0D9FF28C0DAFFDF50070B6A
:10FF34002C6E2C50020D010EF324D96E000EF42009
:10FF4400DA6EDECF2DF0DDCF2EF02DC0D9FF2EC01E
:10FF5400DAFF2B50DF16FEEF7FF027C0D9FF28C051
:10FF6400DAFFDF30E832E832070B296E010E2A6E21
:10FF7400292ABFEF7FF0D8902A36292EBDEF7FF0D3
:10FF840027C0D9FF28C0DAFFDF50070B2B6E2B5098
:10FF9400020D010EF324D96E000EF420DA6EDECFCA
:10FFA4002CF0DDCF2DF02CC0D9FF2DC0DAFF2A5064
:10FFB400DF12FEEF7FF027C0D9FF28C0DAFFDFBED3
:10FFC400E6EF7FF0E9EF7FF0010EEAEF7FF0000E3D
:10FFD400296E2A6A2A50000AD8B4F3EF7FF07AEF28
:10FFE4007FF02950000AD8B47EEF7FF0010AD8B41C
:0CFFF400AFEF7FF07AEF7FF02F5012008B
:020000040020DA
:08000000FFFFFFFFFFFFFFFF00
:020000040030CA
:0E000000FF071F1FFF8385FF0FC00FE00F409B
:00000001FF
