:0400000075EF0BF09D
:10100000003738392F3435362A3132332D23303DED
:051010002B2569000022
:10101600010E306E28502910D8B414EF08F016EFE0
:1010260008F027EF08F028C0D9FF29C0DAFFDF3023
:10103600E832E832070B2A6E070E2A6425EF08F01D
:1010460027EF08F08AEF08F0000E306EABEF08F0DD
:1010560028C0D9FF29C0DAFFDF30E832E832070BB3
:101066002A6E010E2B6E2A2A3BEF08F0D8902B36FB
:101076002A2E39EF08F02B50FF0A2C6E28C0D9FF14
:1010860029C0DAFFDF50070B2D6E2D50020D150E0D
:10109600F324D96E000EF420DA6EDECF2EF0DDCF0B
:1010A6002FF02EC0D9FF2FC0DAFF2C50DF16ABEF82
:1010B60008F028C0D9FF29C0DAFFDF30E832E8326D
:1010C600070B2A6E010E2B6E2A2A6CEF08F0D890B9
:1010D6002B362A2E6AEF08F028C0D9FF29C0DAFF7E
:1010E600DF50070B2C6E2C50020D150EF324D96E13
:1010F600000EF420DA6EDECF2DF0DDCF2EF02DC0FF
:10110600D9FF2EC0DAFF2B50DF12ABEF08F028C054
:10111600D9FF29C0DAFFDFBC93EF08F096EF08F09D
:10112600010E97EF08F0000E2A6E2B6A2B50000A6C
:10113600D8B4A0EF08F027EF08F02A50000AD8B478
:101146002BEF08F0010AD8B45CEF08F027EF08F09F
:1011560030501200010E316E28502910D8B4B6EF67
:1011660008F0B8EF08F0C9EF08F028C0D9FF29C089
:10117600DAFFDF30E832E832070B2B6E070E2B64FE
:10118600C7EF08F0C9EF08F02CEF09F0000E316E3A
:1011960041EF09F028C0D9FF29C0DAFFDF30E83275
:1011A600E832070B2B6E010E2C6E2B2ADDEF08F0B2
:1011B600D8902C362B2EDBEF08F02C50FF0A2D6E24
:1011C60028C0D9FF29C0DAFFDF50070B2E6E2E503C
:1011D600020D010EF324D96E000EF420DA6EDECF76
:1011E6002FF0DDCF30F02FC0D9FF30C0DAFF2D5001
:1011F600DF1641EF09F028C0D9FF29C0DAFFDF303A
:10120600E832E832070B2B6E010E2C6E2B2A0EEFFE
:1012160009F0D8902C362B2E0CEF09F028C0D9FFF8
:1012260029C0DAFFDF50070B2D6E2D50020D010E7F
:10123600F324D96E000EF420DA6EDECF2EF0DDCF69
:101246002FF02EC0D9FF2FC0DAFF2C50DF1241EF4E
:1012560009F02A502B6E2C6A2C50000AD8B436EFAF
:1012660009F0C9EF08F02B50000AD8B4CDEF08F00A
:10127600010AD8B4FEEF08F0C9EF08F031501200A9
:10128600000E3B6E000E3C6E000E3A6E000E396E7E
:1012960032503310D8B452EF09F054EF09F05DEF35
:1012A60009F034503510D8A45BEF09F05DEF09F072
:1012B60061EF09F0000E386ECFEF09F0000E3B6EBD
:1012C600000E3A6E3A503224286E000E3320296EF4
:1012D600000E2A6EADEC08F03A2A030E3A6476EF59
:1012E60009F078EF09F065EF09F03B503224286EDB
:1012F600000E3320296E010E2A6EADEC08F00D0E9D
:10130600366EFC0EE82EFED7362EFCD7000E3C6E4F
:101316003C503224366E000E3320376E040E3624CF
:10132600286E000E3720296E390E2A6E000E2B6E9F
:10133600D1EC09F0386E3904D8A4A4EF09F0A6EF71
:1013460009F0BDEF09F03B50040D010EF324366E93
:10135600100EF420376E3C503626000E372236C06B
:10136600F6FF37C0F7FF34C0D9FF35C0DAFF0800F3
:10137600F5CFDFFF3C2A030E3C64C4EF09F0C6EF4D
:1013860009F08BEF09F03B2A030E3B64CDEF09F021
:10139600CFEF09F063EF09F038501200010E316EFD
:1013A60028502910D8B4DAEF09F0DCEF09F0F6EF8F
:1013B60009F028C0D9FF29C0DAFFDF30E832E83269
:1013C600070B2C6E080E2C60EBEF09F0EDEF09F021
:1013D600F6EF09F02A502B10D8A4F4EF09F0F6EF37
:1013E60009F0FAEF09F0000E316E2BEF0AF028C073
:1013F600D9FF29C0DAFFDF30E832E832070B2C6E5E
:1014060028C0D9FF29C0DAFFDF50070B2D6E2D50FB
:10141600020D0B0EF324D96E000EF420DA6EDECF29
:101426002EF0DDCF2FF02EC0D9FF2FC0DAFFDF5010
:10143600306E2C2A21EF0AF0D89030322C2E1FEF76
:101446000AF03050010B2AC0D9FF2BC0DAFFDF6E3D
:1014560031501200000E3A6E000E3B6E35503610BB
:10146600D8A438EF0AF03AEF0AF03EEF0AF0000E81
:10147600396E6BEF0AF0000E3A6E3A503524326E32
:10148600000E3620336E50EC0BF03A2A030E3A6407
:101496004FEF0AF051EF0AF040EF0AF0000E3B6EF4
:1014A6003B503524376E000E3620386E040E372436
:1014B600286E000E3820296E0BEC08F0396E3B2A98
:1014C600030E3B6469EF0AF06BEF0AF053EF0AF084
:1014D600395012004AC039F035C0D9FF36C0DAFF9C
:1014E600DF50070B376E39503718F80B3718396E3F
:1014F60035C0D9FF36C0DAFFDF30E832E832070BF5
:10150600376E37463746374639503718C70B3718C0
:10151600396E399C35C0D9FF36C0DAFFDFAC02D050
:10152600398E01D0399E35503610D8A49DEF0AF079
:101536009FEF0AF0A3EF0AF0000E386EAAEF0AF04A
:10154600390E326E000E336E50EC0BF0386E38509A
:101556001200200E356E000E366E2DEC0AF04B0E84
:10156600356E000E366E6DEC0AF0000E3D6E200EE6
:10157600326E000E336E3D0E346E000E356E43EC49
:1015860009F0370E3D18D8A4CBEF0AF0CDEF0AF0DC
:10159600D3EF0AF04B0E326E000E336EE6EC0AF015
:1015A600380E3D18D8A4DAEF0AF0DCEF0AF0BAEFED
:1015B6000AF04B0E326E000E336E1BEC0BF0BAEFD8
:1015C6000AF000EF00F049C035F032C0D9FF33C051
:1015D600DAFFDF50070B346E35503418F80B341829
:1015E600356E32C0D9FF33C0DAFFDF30E832E83279
:1015F600070B346E34463446344635503418C70B20
:101606003418356E359C358E32503310D8A40EEF13
:101616000BF010EF0BF012EF0BF01AEF0BF0350E8C
:10162600286E000E296E010E2A6EADEC08F012002F
:1016360048C035F032C0D9FF33C0DAFFDF50070BA0
:10164600346E35503418F80B3418356E32C0D9FF65
:1016560033C0DAFFDF30E832E832070B346E344647
:101666003446344635503418C70B3418356E359C1D
:10167600359E32503310D8A443EF0BF045EF0BF0F4
:1016860047EF0BF04FEF0BF0350E286E000E296E6C
:10169600000E2A6EADEC08F0120032503310D8A4BA
:1016A60057EF0BF059EF0BF05DEF0BF0000E346EB9
:1016B60073EF0BF032C028F033C029F00BEC08F0C2
:1016C600346E32C028F033C029F032C0D9FF33C09F
:1016D600DAFF000EDFBE010E2A6EADEC08F0346EA6
:1016E60034501200200EF66E170EF76E000EF86ECE
:1016F60000EE01F010EE27F00900F5CFEEFFE55001
:10170600E150FAE100EE3EF00E0EEE6AE806FDE16B
:10171600000EF86E0001ACEF0AF0890F8A0F8B0FEE
:101726008C0F8D0F800F810F820F830F840F920F06
:10173600930F940F950F960F08020A121A626A7297
:011746007A28
:020000040020DA
:08000000FFFFFFFFFFFFFFFF00
:020000040030CA
:0E000000FF071F1FFF8385FF0FC00FE00F409B
:00000001FF
